:020000040800F2
:1000000098940020190300080B5200088948000842
:1000100009520008ED1E00086D5D00080000000098
:1000200000000000000000000000000089540008EB
:100030005922000800000000215300088B540008DA
:1000400033030008330300083303000833030008B8
:100050003303000833030008330300085B22000861
:100060003303000861220008672200086D210008A0
:1000700079210008330300088521000833030008B4
:1000800033030008912100083303000833030008FC
:100090003303000833030008330300086D2200080F
:1000A0003303000833030008330300083303000858
:1000B000330300084955000855550008330300086C
:1000C0003303000833030008330300083303000838
:1000D0003303000833030008755C0008815C0008E6
:1000E0003303000833030008330300083303000818
:1000F0003303000833030008330300083303000808
:100100003303000833030008615500083303000877
:1001100033030008330300083303000833030008E7
:10012000330300089D21000833030008330300084F
:1001300033030008330300083303000833030008C7
:10014000F11E000833030008330300080D520008B5
:1001500033030008A9210008330300088D5C000860
:100160003303000833030008330300083303000897
:1001700033030008330300083303000800000000C5
:1001800033030008330300082558000831580008DD
:100190003303000833030008330300083303000867
:1001A00000000000000000003303000800F002F827
:1001B00000F0A2F80AA090E8000C82448344AAF15F
:1001C0000107DA4501D100F097F8AFF2090EBAE85D
:1001D0000F0013F0010F18BFFB1A43F0010318477B
:1001E000EC8700000C8800000A4410F8014B14F062
:1001F0000F0508BF10F8015B240908BF10F8014B78
:100200006D1E05D010F8013B6D1E01F8013BF9D1C0
:10021000641E03D0641E01F8015BFBD19142E4D35C
:10022000704700000023002400250026103A28BF54
:1002300078C1FBD8520728BF30C148BF0B60704758
:100240006E2900F05583702900F0DB81662908F0E3
:100250006A81652908F06781672908F0648161294E
:1002600008F0638103681B0A28BF41F080016929F7
:1002700000F04C81642900F04981752900F0468125
:100280006F2900F04A86782900F0A781E92900F05B
:10029000E585E42900F0E285F52900F0DF85EF2906
:1002A00000F04786F82900F0A6810368DB0928BF23
:1002B00041F08001632900F06685732900F06B85A9
:1002C000E32901F05B80F32901F060800020704792
:1002D0001FB508F01EF900F03BFE040000200021CD
:1002E00007F0CCFA401C60600020002107F0DCFA27
:1002F000E0601FBD10B510BD01F0DFF81146FFF73B
:10030000E7FF06F02DFE01F0FDF803B4FFF7F2FF62
:1003100003BC01F041F90000094880470948004743
:10032000FEE7FEE7FEE7FEE7FEE7FEE7FEE7FEE7A5
:10033000FEE7FEE704480549054A064B7047000002
:1003400039550008AD010008981400209894002049
:10035000985400209854002053EA020C00F0698061
:100360002DE9F04B4FF00006002B1FBFB3FA83F5C9
:1003700003FA05F424FA05F65E4012BF1643B2FAFA
:1003800082F502FA05F4C5F120051EBF22FA05FC2C
:1003900044EA0C04203556EA044C4FEA144418BFD2
:1003A000641C4FF000084FF00009904271EB030C01
:1003B00039D3002919BFB1FA81F701FA07F6B0FA6B
:1003C00080F700FA07F6C7F120071EBF20FA07FCE6
:1003D00046EA0C062037B6FBF4FCA7EB0507103FF6
:1003E00007F01F0BCBF120060CFA0BFB2CFA06F6DC
:1003F00044BFB3460026202FA4BF5E464FF0000B3B
:100400005BEA060C08BF4FF0010B19EB0B09ABFBC5
:10041000027C48EB0608C01B06FB02CC0BFB03CC9E
:1004200071EB0C01C1E70B46024641464846BDE868
:10043000F08B13B54FF000004FF00001AFF30080D8
:10044000BDE81C40704700001CB50C46064B7B44C1
:1004500069460090204600F074FC0446002069467E
:1004600000F082FC20461CBD1709000070B5044650
:1004700085690068C10601D5302600E02026C00746
:1004800007D070BDD4E9012130469047206A401C56
:1004900020626D1EF6D570BD70B504468569007882
:1004A000C00707D170BDD4E9012120209047206A00
:1004B000401C20626D1EF6D570BD70B50C46054619
:1004C000012A05D02878800600D5EA69002302E0D9
:1004D000012305E05B1C934202D2E05C0028F9D1C5
:1004E000A869E618C01AA861286A18442862284634
:1004F000FFF7BCFF04E0D5E9012114F8010B904798
:10050000B442F8D32846FFF7C7FF70BD2DE9F0418C
:100510000646002410687529314616A510D000F053
:100520007CF9002802DA404213A507E031688A0707
:1005300001D512A502E0490704D511A5012401E067
:1005400000F074F900210A2206F1240709E0B0FB4B
:10055000F2FCB0FBF2F302FB1C003030785418467A
:10056000491C0028F3D123462A463046BDE8F04115
:1005700000F065B9000000002D0000002B00000015
:1005800020000000F0B40D460188090502D5214C79
:100590007C4402E01F4C7C440E34002100F1240610
:1005A00008E002F00F071209E75D42EA03721B0937
:1005B0007754491C52EA0307F3D10278002312074B
:1005C00004D5702D06D009B1022311342246F0BCA7
:1005D00000F035B901231034F8E770B504460D4634
:1005E0002146106800F022F9024629462046BDE85F
:1005F00070400023C6E7D21D22F00703D3E9002391
:10060000C0E70368126843F0200303600823C36156
:100610000023B7E7AA8200002DE9F05F894604466F
:100620004FF0000ADFF874B1FB44C0F820A0204668
:10063000E1688847002874D0252806D0D4E9012134
:100640009047206A401C2062F1E700265F46204662
:10065000E16888472028054607DB312D05D2781947
:1006600010F8200C08B10643F1E7B00701D526F0D9
:100670000406C4F81CA00027C4F818A02A2D09D02D
:10068000284606F095FA38B304EB8708303DC8F8E1
:10069000185019E059F8041B204604EB87029161B9
:1006A000E1688847012F054618D1E069002820DA63
:1006B00026F020061DE0D8F8180000EB800005EBBE
:1006C00040003038C8F818002046E16888470546E1
:1006D00006F06EFA0028EED1012F0AD02E2D08D197
:1006E0002046E16888477F1C0546022F46F0200619
:1006F000C4DBA069002803DA404246F00106A0618D
:10070000F00701D026F010066C2D0BD0682D09D013
:100710004C2D39D06A2D35D0742D35D07A2D33D06B
:1007200016E038E0E1682F4620468847B842054683
:1007300009D16C2F26D04FF48060E1680643204633
:100740008847054604E06C2F1AD04FF480700643AA
:100750000DB3A5F14100192802D8203546F40066F2
:100760004A462946204626604E46FFF769FD80B17D
:1007700001280BD0F61D26F0070000F1080956E706
:100780004020E4E78020D8E70020D6E706F10409FE
:100790004DE7284652E7206ABDE8F09F3A82000004
:1007A0004FF0000200B5134694469646203922BF0A
:1007B000A0E80C50A0E80C50B1F12001BFF4F7AF55
:1007C000090728BFA0E80C5048BF0CC05DF804EB37
:1007D000890028BF40F8042B08BF704748BF20F8A5
:1007E000022B11F0804F18BF00F8012B70477047A3
:1007F0007047704710B500F0ABFB001D10BD00BF87
:100800007D70000010B500F0A7FB006810BD10B5AA
:10081000044600F0A1FB046010BD09684A0501D53B
:1008200040B27047C905FCD500B2704709684A0557
:1008300001D5C0B27047C905FCD580B270472DE91B
:10084000F0470D4699469246044600F12408016897
:10085000880604D5E06921F01001216000E0012044
:10086000A84201DD471B00E00027A1697A1902EBCD
:100870000900081AA0612078C00602D42046FFF7BC
:10088000F5FD002608E0D4E901211AF8060090479A
:10089000206A401C761C20624E45F4DB2078C0069E
:1008A0000AD52046FFF7E2FD06E0D4E90121302019
:1008B0009047206A401C2062381EA7F10107F4DC33
:1008C00007E0D4E9012118F805009047206A401C90
:1008D0002062281EA5F10105F3DC2046FFF7DCFDB0
:1008E0002078000602D50220BDE8F0870120FBE752
:1008F00011680268006A530501D508700AE0D30543
:1009000001D5088006E0130603D5C217C1E900022D
:1009100000E008600120704770472DE9FF4F0C464A
:100920001E464FF0FF378BB0D2E90001DDF8608042
:100930000A908A46C1F30A5505B93D46002108468A
:100940004FF00000BAF1000F00F4400005DA00EBB0
:1009500080004FF4400101EA50004FEA9059B9F18C
:10096000010F00DDB9460A9850EA4A000ED044F65D
:100970001050A5F2FF3545432F14B8F1000F1ED0DB
:100980007542291E1EDDC9F100021CE0B8F1010FFD
:100990004FF0000001D0302103E0F24305E0215484
:1009A000401CB042FBDB30460022002121540B9951
:1009B000C1F80880C1E900200FB0BDE8F08FBD1B71
:1009C0006D1CDEE74A4600DA694206A800F0E2FC48
:1009D00006AB93E8070003AB83E8070050460A998B
:1009E00000F0E0FD8DE80700A0F500501F380090F2
:1009F0000398002D0ADD42F21F014A4608440023F5
:100A000003A90390684601F049F809E0A0F50050F9
:100A10004A461F38002303A90390684601F053F8A3
:100A20008DE807000004000C03D04FF0FF304108B0
:100A300000E01046B8F1000F03D0002200921546E6
:100A40001EE0751E05D400F08BFA303262556D1E23
:100A5000F9D5B3460122084302D000227F1C04E0EE
:100A60002078302801D100227F1E002A099784D0E7
:100A70001DE0112D07DA00F073FA303262556D1C5B
:100A800050EA0102F5D1084302D00098C8B10EE047
:100A90000021681E05E0235C625C63542254401E02
:100AA000491C8142F7DBAB46A81B401E0990002081
:100AB00004F80B000B98099AC0F80880C0E9002BD5
:100AC0007AE711264FF0000857E72DE9F04F8846E6
:100AD0000446D21D22F0070191B0D1E90001CDE911
:100AE0000A0105F044F902460B98C00F01D02D20F1
:100AF00007E02068810701D52B2002E0202101EAD0
:100B0000C000032A099001D0072A05DB03464146AD
:100B1000204600F0E9FB0BE12078800601D5E06972
:100B200000E00620B8F1650F814606D0B8F1660FE7
:100B300018D0B8F1670F70D131E00020B9F1110F72
:100B4000009001DB112301E009F101030AAA01A9C8
:100B50000CA8FFF7E2FEDDE90C70002609F10105A3
:100B6000834647E001204B4600904FF000470AAA19
:100B700001A90CA8FFF7D1FEDDE90DB00C995D4687
:100B8000002610B909F101000D18B9EB050003D4D6
:100B9000C0F1FF3609F10105A5EB09002BE0B9F121
:100BA000010F01DA4FF001090020B9F1110F009097
:100BB000484601DD112300E003460AAA01A90CA85A
:100BC000FFF7ABFEDDE90C704D460026834620782A
:100BD00000070AD4AB4500DA5D4601A8012D04DD0B
:100BE000411911F8011C302907D04F4502DA17F1DD
:100BF000040F04DA012082460FE06D1EEEE7002F9D
:100C000002DCED1B3E4403E0781CA84200DD7D1CA5
:100C1000B81B00F1010A4FF000472078000703D409
:100C2000AA4501DB4FF0FF3A0021B7F1004F0DF16B
:100C300043088DF8431024D002202B23002F01DA23
:100C40007F422D230A21021EA0F1010000DC5FB1CA
:100C500097FBF1FC97FBF1F201FB1C7C17460CF1B2
:100C6000300C08F801CDEEE7A8F1010003702188EF
:100C7000090501D5452100E06521A0F1010800F832
:100C8000011C09980FA9A1EB0807FF1D00B1012065
:100C9000411901EBEA70A1693844081A401EA061AD
:100CA0002078C00602D42046FFF7E0FB099828B15F
:100CB000D4E901219047206A401C20622078C006B8
:100CC00022D52046FFF7D2FB1EE0002E04DBB34501
:100CD00002DD01A8805D00E03020D4E901219047C9
:100CE000206A401C2062761CAAF101005FEA000A1B
:100CF0000AD100F02DF9C0680168405CD4E90121F7
:100D00009047206A401C2062281EA5F10105DCDC0A
:100D100007E0D4E9012118F8010B9047206A401C34
:100D20002062381EA7F10107F3DC2046FFF7B4FB71
:100D3000032011B041E6000001694A1C02610878F5
:100D4000704700B58FB0CDE901310021059105490B
:100D50007944CDE9031011466846FFF75DFC0FB0FA
:100D600000BD0000E5FFFFFF0A6802F8010B0A6002
:100D7000704710B5436913B1AFF3008001E0FFF78E
:100D80009CFB012010BD127800F124010A700022A2
:100D90004A700122EDE711684FF0FF32E9E70000E9
:100DA0002DE9FF5F15468A460446DFF8AC80F8441B
:100DB0000027D8E900103E46CDE9001010E03AF8CF
:100DC00016106A4602A800F057FB411C07D0217894
:100DD000890603D5E269391891420DD80744761C7B
:100DE0002078800602D5E069B84205DDAE42E6DB38
:100DF0003AF816000028E2D1A069C01BA061204685
:100E0000FFF734FBD8E90010CDE90010002017E00F
:100E10003AF818106A4602A800F02EFBB0F1FF3F26
:100E200081460BD000250DF1080B05E0D4E9012126
:100E30001BF8050090476D1C4D45F7D308F10100E4
:100E4000B0428046E4DB206A384420622046FFF747
:100E500023FBBDE8FF9F00004E7B00002DE9F04121
:100E60008046D21D22F007020025D2E90002F529B2
:100E700015A614D0011E72F1000106DA0023D0EB92
:100E8000030063EB020211A608E0D8F800108B07FC
:100E900001D50FA602E0490701D50EA6012511468E
:100EA000002408F1240704E000F05AF830323A55E3
:100EB000641C50EA0102F7D12B46324621464046D7
:100EC000BDE8F041FFF7BBBC000000002D000000B2
:100ED0002B0000002000000030B4002100F12404A9
:100EE00008E002F00705D208303542EA4372DB0819
:100EF0006554491C52EA0305F3D10468002310A28B
:100F0000250707D5A40600D421B1C46901230DA289
:100F1000641EC46130BCFFF792BC10B50446214684
:100F20001068FFF783FC02462046BDE8104000230E
:100F3000D2E7D21D22F00701D1E90023CCE700005F
:100F40000000000030000000004870473814002006
:100F5000004870475814002000487047381400209B
:100F600030B5B0F10A024FEA900E71F100034EEA7B
:100F7000817EB0EB0E0061EB91014FEA101E4EEA4C
:100F8000017E10EB0E0041EB11114FEA102E4EEADC
:100F9000016E10EB0E0041EB11214FEA104E4EEAAC
:100FA000014E10EB0E0041EB1141401841F10001E0
:100FB0004FEAD00040EA41704FEAD10110EB8005C2
:100FC0004FEA810444EA907444EB01046D1944EB48
:100FD0000404521BA3414FF0000348BF0A3200D55E
:100FE00030BD401C41F1000130BD00002DE9F04F43
:100FF00004460D46D21D22F0070089B0D0E90097C3
:101000004846394604F0B3FE0246F80F01D02D23BE
:1010100007E02068810701D52B2302E0202101EAA7
:10102000C0038DF820300BB1012000E00020032A1E
:10103000824601D0072A04DB2946204600F054F9F5
:101040003FE12078800601D40D2500E0E569C7F373
:101050000A560D2D49DA00214FEA175B08464FF07A
:101060000000002F00F4400007DA00EB80004FF48E
:10107000400100EBD07001EA60008115012901DD1B
:101080004FF0FF3100224FEA850CBCF1180F06D358
:101090001346ACF118004FF08052C24003E04FF409
:1010A000801323FA0CF30CF10C0CBCF1200F04D3C9
:1010B000ACF1200C09FA0CF001E007FA0CF0002961
:1010C0004FF0004801DD18B90FE00ED140450CD3B8
:1010D00019EB02095F4121B9404502D19F4329EA3A
:1010E0000209BBEB175F00D0761C2088000502D5F3
:1010F0007B48784402E07A487844193808AA3023BB
:1011000002F80A30037C0AF10101002E0AF1020AFA
:1011100053546A4602DC4FF0300101E04FF03101D8
:101120004FF001088DF8001002D0A6F2FF3603E060
:1011300059EA470100D06B4E002D02DC21780907E7
:1011400004D54FF002082E218DF80110C44600216D
:101150000BE0C7F303433F01C35C491C6D1E02F85B
:101160000830052908F1010801DA002DF1DC002121
:101170000CE000EB1973491C1B786D1E082902F85E
:1011800008304FEA091908F1010801DA002DF0DCF6
:1011900021688B0602D516E0A8F10108E04505DDBF
:1011A00002EB080313F8013C302BF5D0B8F1000F27
:1011B00009DD02EB080313F8013C2E2B03D10907CC
:1011C00001D4A8F10108002D05DD3E2102F8081028
:1011D0006D1E08F10108407C002E02F8080008F19D
:1011E000010804DA2D20764202F8080002E02B20E4
:1011F00002F808000A214FF47A70864208F10108CB
:101200000BDB96FBF0F3303302F8083096FBF0F37B
:1012100008F1010800FB136601E0642E0CDB64207A
:1012200096FBF0F3303302F8083096FBF0F308F148
:10123000010800FB136601E00A2E06DB96FBF1F0C5
:10124000303002F8080008F1010896FBF1F001FBCC
:101250001060303002F80800A16908F1010808EBBD
:10126000050202EB0A00081AA0612078C00602D429
:101270002046FFF7FBF8216A08AE01EB0A00206266
:1012800004E0D4E9012116F8010B9047BAF1010AF4
:10129000F7D22078C00602D52046FFF7E7F86E4661
:1012A00009E016F8010B3E280FD0D4E90121904740
:1012B000206A401C2062B8F10108F2D22046FFF7F4
:1012C000EBF809B00320BDE8F08F206A28442062C3
:1012D00003E0D4E90121302090476D1EEBD3F8E7FD
:1012E0002D78000002FCFFFF2DE9F0411F46044667
:1012F00003260168072A01F4006004DB08B116A583
:1013000005E016A503E008B115A500E015A521F03C
:1013100010002060A069C01EA0610FB1401EA06136
:101320002046FFF7A3F84FB1D4E901213846904792
:10133000206A401C2062C01C206206E0206AFAE796
:10134000D4E9012115F8010B9047761EF8D220460A
:10135000FFF7A2F8BDE8F0814E414E006E616E00CD
:10136000494E4600696E660010B5436913B1AFF38C
:10137000008001E0FFF714FD012010BD128800F18C
:10138000240182840022C2840122EDE711684FF01B
:10139000FF32E9E72DE9F047814616468AB0354825
:1013A00078440DC88DE80D0032487844801C03ACA9
:1013B0000DC884E80D0041F69B300844372190FBAE
:1013C000F1F290FBF1F5A5F1800501FB12041B3C45
:1013D00002D56442012000E00020DFF898A080469A
:1013E0000027FA44AAF1BE0A0EE0E0070AD032460E
:1013F000684607EB470101230AEB810100F063FB1C
:101400008DE8070064107F1C002CEED1194F7F443B
:10141000AE3F19E0E80715D007EB04100DF1180AEC
:1014200090E80E008AE80E00C068F04201D19819D9
:1014300008903246012306A903A800F044FB03AB41
:1014400083E807006D10641C002DE3D14FF0010309
:1014500032466946B8F1000F03A802D000F01EFB27
:1014600001E000F030FBC9E90001C9F808200AB02A
:10147000BDE8F0871076000070B516460C460546AC
:10148000FFF7B8F9036893F80101012806D0FF2C93
:101490000FD8185D68B101202C7070BDD3F807011A
:1014A0003246214603F2071303442846BDE8704044
:1014B00018474FF0FF3070BD70477546FFF744FD89
:1014C000AE4605006946534620F00700854618B031
:1014D00020B5FEF72FFFBDE820404FF000064FF08B
:1014E00000074FF000084FF0000B21F00701AC4659
:1014F000ACE8C009ACE8C009ACE8C009ACE8C00978
:101500008D46704710B50446AFF300802046BDE815
:101510001040FEF7FABE00004FF0013C50F8042BDB
:1015200051F8043B9A4221D1A2EB0C03934313EAF6
:10153000CC1317D150F8042B51F8043B9A4215D123
:10154000A2EB0C03934313EACC130BD150F8042BFA
:1015500051F8043B9A4209D1A2EB0C03934313EADE
:10156000CC13DBD04FF00000704700BFD01A01BA97
:10157000B1FA81F101F0180122FA01F0CB40C1F17A
:101580002001DBB2C0B2C01A2CFA01F3D11A914388
:1015900011EAC311E6D1704701491820ABBEFEE73E
:1015A000260002005FEA400C08BF91F0000F4FEAEE
:1015B0008C234FEAC12243EA51514FEA1C5018BF15
:1015C00000F5F0404FEA300018BF41F000415FEAFB
:1015D0006C5C00F02980BCF1FF3F08BF40F0804008
:1015E0007047130C06BF12044FF0100C4FF0000CA4
:1015F000130E04BF12020CF1080C130F04BF1201EA
:101600000CF1040C930F04BF92000CF1020CD30FE9
:1016100004BF52000CF1010C11464FF00002A0F182
:101620001F00A0EB0C00704711F0004F08BF70477F
:1016300031F000413FF4D5AF0B0C06BF09044FF069
:10164000100C4FF0000C0B0E04BF09020CF1080C3B
:101650000B0F04BF09010CF1040C8B0F04BF8900B0
:101660000CF1020CCB0F04BF49000CF1010CCCF1C2
:101670002003A0EB0C0022FA03F302FA0CF241EA79
:10168000030100F10100704720F07F4C80EA030065
:1016900023F07F47ACEB070303F57C5300F00040D9
:1016A00003F1FF032DE980494FEA154B09B44FEAD6
:1016B000144325EA0B4E24EA03480FF2042606EBF6
:1016C000132749083E785FEA320203FB0667C7F535
:1016D000000707FB06F64FEA54374FEAD64606F1F5
:1016E000020607FB066CCCF1005C4FEA1C472CEAB3
:1016F000074C07FB06F40CFB06F504EB15464FEA16
:10170000961634BF00204FF000404FEAD13706FB59
:1017100007FC4FEA1C4C0CFB0BF7D21B03FB0CF72E
:1017200061EB07010CFB0EF7B0EB074072EB1742C1
:101730000CFB08F734BFA2EB0742B2EB074261EBA8
:1017400017414FEA0C444FEA910706FB07FC4FEAAA
:101750001C4C0CFB0BF7B0EBC74072EB573203FB92
:101760000CF734BFA2EBC742B2EBC74261EB573173
:101770000CFB0EF7B0EBC70072EB57720CFB08F7CF
:1017800034BFA2EBC702B2EBC70261EB5771039FF4
:101790004FEA816141EA921104EBCC044FEAD13760
:1017A0004FEA826206FB07FC42EA90124FEA806031
:1017B0004FEA1C4C0CFB0BF7D21B03FB0CF761EB45
:1017C00007010CFB0EF7B0EB074072EB17420CFB66
:1017D00008F734BFA2EB0742B2EB074261EB1741B7
:1017E0004FEA8C554FEA910704EB9C2406FB07FC5B
:1017F0004FEA1C4C0CFB0BF7B0EBC74072EB5732B7
:1018000003FB0CF734BFA2EBC742B2EBC74261EB5C
:1018100057310CFB0EF7B0EBC70072EB57720CFBA5
:1018200008F734BFA2EBC702B2EBC70261EB5771F6
:1018300015EB4C254FEA816141EA92114FEA826231
:101840004FEAD13742EA901206FB07FC44F100044C
:101850004FEA80604FEA1C4C0CFB0BF7D21B03FBDA
:101860000CF761EB07010CFB0EF7B0EB074072EBD6
:1018700017420CFB08F734BFA2EB0742B2EB07425A
:1018800061EB174115EB1C154FEA813141EA92419A
:101890004FEA823242EA90424FEA80304FEA0C76B9
:1018A00044F1000448EA03434EEA0B484FF0000EAF
:1018B000B2EB080C71EB030724BF624639464EEBCE
:1018C0000E0E4FF0000B0018524149414BEB0B0B31
:1018D000B2EB080C71EB03077BF1000B24BF6246EF
:1018E00039464EEB0E0E4FF0000B001852414941A5
:1018F0004BEB0B0BB2EB080C71EB03077BF1000B0E
:1019000024BF624639464EEB0E0E51EA020718BF5D
:1019100046F0010616EB0E7655F1000254F1000177
:1019200003D5BDE88901BDE80088BDE88901BDE8AF
:101930000048B619524141EB0101A3F10103704780
:1019400080807F7E7D7C7B7A7978777676757473FC
:10195000727171706F6E6E6D6C6C6B6A6A696868BB
:10196000676666656464636362616160605F5F5E51
:101970005E5D5D5C5C5B5B5A5A59595858575756C7
:10198000565555555454535352525251515050502C
:101990004F4F4F4E4E4D4D4D4C4C4C4B4B4B4A4A7E
:1019A0004A494949484848474747474646464545C2
:1019B00045444444444343434342424242414141FB
:1019C000002B9C4630D477002BD01CB54FEA37074C
:1019D00003B44FF010004FF01001BAF1000F06D021
:1019E000BCF1000FDCBF40F0080040F008014FF0F0
:1019F00000000FBCBDE810400BF1010BBBF1010F63
:101A000008BF5FEA170722BF12F1010211F10101BD
:101A10004FF0004143F1000300F0004043EA0000B2
:101A20007047F9D35708D0E746EA064613F1400F4E
:101A30004FEA16461FDD13F1200FDFBF16430A469B
:101A4000002120335B42BED0C3F1200746EA0646A0
:101A500002FA07F74FEA164646EA0706C3F12007DF
:101A600022FA03F201FA07F721FA03F14FF000031B
:101A700042EA0702A7E746EA020646EA06464FEAB6
:101A8000164646EA0106BCBF46EA0646360C4FF04B
:101A900000034FF000024FF0000194E72DE9804C65
:101AA0009A46934670B491E8380007C831EA400C72
:101AB00048BF34EA430C03D5FFF7E6FDFFF780FF8C
:101AC000F0BCBDE8008C2DE9804C9A46934670B47A
:101AD00091E8380007C810F0804F08BF13F0804F1E
:101AE00003D100F005F8FFF76BFFF0BCBDE8008CF8
:101AF00020F07F4780EA030023F07F4C07EB0C03C4
:101B0000A3F57C5300F00040A3F1FE0392F0000F18
:101B100000F0B38095F0000F00F077802DE90149C7
:101B20004FEA11404FEA144621EA004800FB06FC48
:101B300024EA064708FB06F607FB08F800FB07F750
:101B400018EB06484CEB164C4FEA124B18EB0748C3
:101B50004FEA15464CEB174022EA0B4E0BFB06FCF6
:101B600025EA06470EFB06F607FB0EFE0BFB07F702
:101B70001EEB064E4CEB164C4FF000061EEB074ECC
:101B80004CEB174B18EB0B0840F1000018EB0E0B59
:101B900058EB000840F100008F1A4FF000013CBFE5
:101BA000C943661B14BFB5EB040C00213CBFC943FD
:101BB000F61B4FEA17444EEA8E0E27EA04454FEA19
:101BC0001C4704FB07622CEA074C05FB07F70CFBDC
:101BD00005F604FB0CFC16EB074642EB174216EB2E
:101BE0000C4642EB1C421BEB060658EB020241413D
:101BF00046EA9E0601D5BDE80189B619524141EB7E
:101C00000101A3F10103BDE801894FEA14454FEA40
:101C1000114724EA054621EA074C05FB07F406FBB9
:101C200007F70CFB06F105FB0CFC11EB074144EB3D
:101C300017444FEA124711EB0C4144EB1C4422EAD3
:101C4000074C05FB07F206FB07F70CFB06F605FB46
:101C50000CFC16EB074642EB174216EB0C4642EB28
:101C60001C456A1854F1000148BF7047B61952412B
:101C700041EB0101A3F10103704795F0000F37D04C
:101C80004FEA11424FEA144721EA024624EA074C80
:101C900002FB07F106FB07F70CFB06F402FB0CFC4A
:101CA00014EB074441EB17414FEA154714EB0C4482
:101CB00041EB1C4125EA074C02FB07F506FB07F741
:101CC0000CFB06F602FB0CFC16EB074645EB174532
:101CD00016EB0C4645EB1C42121951F1000148BFAE
:101CE0007047B619524141EB0101A3F1010370475E
:101CF0004FEA14454FEA114724EA054621EA074C0A
:101D000005FB07F106FB07F70CFB06F24FF0000698
:101D100005FB0CFC12EB074241EB174112EB0C42A6
:101D200051EB1C4148BF7047921841EB0101A3F1F0
:101D30000103704710B50146806B026C12F0500F22
:101D400005D0026CD20626D500F04AFB10BD016C0E
:101D500041F40071016401688A6812F0405F17D194
:101D6000027EAAB9CA6A12F4700F02D08A685205BC
:101D70000ED44A6822F020024A60016C21F480717E
:101D80000164016CC90403D4016C41F001010164D8
:101D900000F024FB10BD806BC26CBDE8104008460B
:101DA000104710B5806B40210164416C41F0040183
:101DB000416400F015FB10BD10B5806B00F00FFB07
:101DC00010BD0000464910B54A6822F440324A600E
:101DD0004A6843681A434A6001684A6822F480727C
:101DE0004A6001684A68036942EA03224A6001685E
:101DF0004A6822F040724A6001684A6883681A4360
:101E00004A6001688A6822F400628A6001688A6810
:101E1000C3681A438A60816A6FF07062D1420168B8
:101E20008A6822F070628A6001688A680CD0836ACE
:101E30001A438A6001688A6822F040528A60016809
:101E40008A68C36A1A4301E022F040528A6001683E
:101E50008A6822F002028A6001688A68037E42EA88
:101E600043028A6090F82010002901684A680FD068
:101E700042F400624A6001684A6822F460424A60A3
:101E800001684A68174C436A04EB43331A4301E084
:101E900022F400624A600168CA6A22F47002CA62CF
:101EA0000168CA6A838B104C04EB03531A43CA625D
:101EB00001688A6822F400728A6001688A6890F872
:101EC000303042EA43228A6001688A6822F48062E4
:101ED0008A6001688A68406942EA8020886010BD93
:101EE0000023014000E0FFFF0000F0FFFEE70000DC
:101EF000014800F094BC0000D01100200748B0EE6B
:101F0000080ADFED070A80ED040AC0ED060A00F5B5
:101F10002F7080ED040AC0ED060A7047C40100204E
:101F2000CDCC4C3E10B533492DED068B91ED00AA7A
:101F3000D1ED019A91ED029A3AEE290A30EE090AA2
:101F400010EE100A06F074FA9FED2B8B53EC182B51
:101F500005F078FF05F0CAFC00EE900A3AEE600A40
:101F600039EEE01A79EE600A20EE000A01EE010A6D
:101F700000EEA00A10EE100A06F05AFA53EC182BE5
:101F800005F060FF05F0B2FC1A4900222039012358
:101F900091ED000A1A49B5EEC00AF1EE10FA1BDD08
:101FA000144C203C94ED010AB5EEC00AF1EE10FA93
:101FB00012DD94ED020AB5EEC00AF1EE10FA0BD86C
:101FC00094ED030AB5EEC00AF1EE10FA04D8CC6C19
:101FD000A02C01D9C1E91323CC6C641CCC64094C3E
:101FE000A04204DD086D012801D10B600A65BDEC3B
:101FF000068B10BD98120020465D6BEF5355D53F00
:102000008C0000200000A0402DE9F0434A492DED4E
:10201000068B87B091ED00AAD1ED019A91ED029A5D
:102020003AEE290A30EE090A10EE100A06F000FA1C
:102030009FED428B53EC182B05F004FF05F056FC86
:1020400000EE100ADFF8FC907AEE400A39EEC01A72
:1020500089ED190A39EE400A60EEA00A4C4641EEBD
:10206000010A40EE000A10EE900A06F0E1F953EC86
:10207000182B05F0E7FE05F039FCA0663248006B2E
:1020800006F0D6F9064631480F46006806F0D0F94A
:10209000DFF8A480044608F10C080D46D8F830009B
:1020A00006F0C6F90B4602468DE8FC00B8F80A10A7
:1020B000D8F82C2026A004F03DFEA8F1280000212D
:1020C00090ED000A0122B5EEC00AF1EE10FA1CD222
:1020D00090ED010AB5EEC00AF1EE10FA15D290EDBE
:1020E000020AB5EEC00AF1EE10FA0EDB90ED030A1B
:1020F000B5EEC00AF1EE10FA07DBD9F85C304846BD
:10210000A02B02D90266C9F85C10D9F85C30164CD5
:102110005B1CC9F85C30D9F868304846A34205DD3D
:10212000036E012B02D14260C9F8601007B0BDEC0C
:10213000068BBDE8F0830000A4120020465D6BEF23
:102140005355D53F8C000020B00A002060010020CC
:10215000666F7263653A25642C25642C25662C25F0
:10216000662C2566200A00000000A040014800F00F
:10217000FDBD0000E00F0020014800F0F7BD0000A9
:10218000200F0020014800F0F1BD0000C00E00202B
:10219000014800F0EBBD0000800F0020014800F076
:1021A000E5BD000040100020014800F0DFBD000048
:1021B000A010002001681823CAB2103AB2FBF3F253
:1021C000054B6FF30901032A9B5CC36500D9091D08
:1021D00081650846704700001E88000810B501465A
:1021E00000208B698A6A4FF0C07453B1B3F5005F69
:1021F00015D072B1012A0CD0022A0AD0032A09D1C3
:1022000004E01AB1012A06D0022A03D1C96AC90121
:1022100000D5012010BDC96AA142FAD010BD002A24
:10222000F7D0012AF2D0022AF3D0032AF3D010BD4E
:1022300030B50468256825F480252560046863604E
:102240008368402B036803D099600068C26030BD8A
:102250009A600068C16030BD7047022000F00CBF7A
:10226000082000F009BF102000F006BF202000F079
:1022700003BF72B6FEE7000078B50024009490F822
:102280003C20012A19D0012280F83C200A6807234B
:102290000568092A13D9EE680A3A02EB4202934014
:1022A0009E43EE600B788A680A3B03EB43039A4037
:1022B0000368DD682A43DA6010E0022078BD2E69E9
:1022C00002EB420293409E432E610B788A6803EB37
:1022D00043039A4003681D692A431A614A681F2311
:1022E000072A13D205686E6B521E02EB82029340DE
:1022F0009E436E630A8893B20A79521E02EB8202F1
:1023000093400268556B2B43536327E005680D2A01
:1023100012D22E6BD21F02EB820293409E432E6399
:102320000B790A88DB1F92B203EB83039A400368A0
:102330001D6B2A431A6311E0EE6A0D3A02EB82022A
:1023400093409E43EE620B790A880D3B92B203EBF9
:1023500083039A400368DD6A2A43DA621B4B0568EF
:10236000194A9D420AD10D68122D07D1556825F4EE
:1023700000055560556845F48005556005689D4227
:102380001DD1134D0B68AB4201D0112B17D15368EF
:1023900023F480035360536843F4000353600968D7
:1023A000A9420CD10B490C4A0968B1FBF2F101EBCF
:1023B0008101490000E0491E00910029FBD180F80D
:1023C0003C40002078BD0000002301400020014077
:1023D000120000108800002040420F007047704734
:1023E000704770B504004FF0000503D0206C002644
:1023F00010B107E0012070BD204600F01DF86664B2
:1024000084F83C60206CC00610D4206C20F4885006
:1024100040F0020020642046FFF7D4FC6664206C84
:1024200020F0020040F00100206400E0012584F863
:102430003C60284670BD000070B586B00646142189
:102440006846FEF7ADF91E493068884235D11D480F
:102450000025016841F480710160006800F480701B
:10246000059018481438016841F0010101600068C6
:10247000694600F0010005900A2000900320CDE994
:102480000105114800F004FE114C1048C4E9000594
:102490000015A560C4E90350400060618000A061A0
:1024A0004011E0614002C4E90805204600F02EFD1D
:1024B00008B1FFF7DEFEB463A66306B070BD00008E
:1024C00000200140443802400000024010640240F5
:1024D00048110020F8B50E4600210446009190F8FE
:1024E0003C00012807D0012084F83C002068836864
:1024F000DB0702D011E00220F8BD836843F001033E
:1025000083603748374B0068B0FBF3F000EB4000C6
:1025100000E0401E00900028FBD120688368DB07A4
:102520005CD0236C40F20165AB4343F480732364B9
:102530004068400505D5206C20F4005040F48050E0
:102540002064206CC00404D5606C20F00600606438
:1025500000E0616484F83C10A16B2448224DC863FC
:10256000A16B23480864A16B2248C86421686FF0FE
:10257000220008602068416841F080614160206865
:10258000816841F4807181602168134632464C3184
:10259000A06B00F025FD68681749C006206806D0CA
:1025A00088421BD1816811F0405F13D016E0884249
:1025B000F8D0124A904203D1D1F80423D206F1D0C8
:1025C0000F4A90420AD1D1F8041301F01F011029DB
:1025D000E8D303E0816841F0804181600020F8BDCC
:1025E0008800002040420F0000230140351D0008F4
:1025F000B91D0008A31D0008002001400021014072
:102600000022014090F82020012A07D0022A05D09C
:10261000416A41F4802141620120704700684269AB
:102620000A4342610020704710B590F82020012A2B
:1026300007D0022A05D0416A41F48021416201207D
:1026400010BD3B48D0F8002242F00102C0F8002241
:10265000D0F8002222F47C52C0F80022D0F80022E8
:102660004B6A42EA0322C0F800220A7D02F01F03EF
:1026700001229A40D0F81C329343C0F81C32CB6937
:10268000B3B9D0F80C329343C0F80C328C894B6844
:1026900064F31F434C6900EBC404C4F840320C8956
:1026A0000B6864F31F434C6900EBC404C4F8443264
:1026B000CB69012B16D1D0F80C321343C0F80C3281
:1026C0000C884B6864F31F434C6900EBC404C4F8E6
:1026D00040320C89CB6864F31F434C6900EBC4049F
:1026E000C4F844328B69002BD0F804320ED0134367
:1026F000C0F804320B69002BD0F8143208D0134311
:10270000C0F81432096A012904D008E09343EFE7C6
:102710009343F5E7D0F81C121143C0F81C12D0F80F
:10272000001221F00101C0F80012002010BD0000CD
:1027300000640040704730B590F82040012C05D06F
:10274000022C03D0416A41F480215DE00468002935
:1027500055D02469A40754D04FF4D874056804EB0D
:1027600001142D5915F00405956005682D594ED0BA
:10277000ED08556005682C5904F00204D4604FF44C
:10278000DA74056804EB01142D5905F00F05156185
:1027900005682D59C5F30725956105682C59240C4A
:1027A00054614FF4DC72046802EB0112A4581C70EF
:1027B0000468A458240A5C700468A458240C9C7013
:1027C0000468A258120EDA704FF4DE72046802EB4D
:1027D0000112A4581C710468A458240A5C7104688E
:1027E000A458240C9C710468A258120EDA71006877
:1027F00081B1016941F020010161002030BDE46830
:10280000A8E7416A41F400114162012030BD6D0D1D
:102810001560AFE7C16841F02001C160EDE72DE927
:10282000F05F0546006800244669D0F80490876888
:10283000D0F80CB0D0F810A0D0F81880F10748D02C
:10284000F90714D001218160B80703D5284600F0AC
:102850002CFA0CE0780702D54FF4006407E0380743
:1028600002D54FF4805402E0284600F01DFAF80526
:1028700016D529684FF480708860B80503D52846BE
:1028800000F015FA0CE0780502D544F4005407E096
:10289000380502D544F4804402E0284600F006FAE8
:1028A000F80316D529684FF480308860B80303D543
:1028B000284600F0FEF90CE0780302D544F4004409
:1028C00007E0380302D544F4803402E0284600F0E3
:1028D000EFF9300707D55FEACB6004D529681020EF
:1028E00044F40074C86070074FF0080707D55FEA2A
:1028F0000B7004D52868C760284600F099F9B00726
:1029000006D52868C068800702D0284600F092F9F2
:10291000700607D55FEACA6004D52968102044F420
:1029200080640861B00607D55FEA0A7004D528689C
:102930000761284600F088F9F00606D52868006986
:10294000800702D0284600F080F9B00308D55FEA7E
:10295000C96005D5296810204860284600F076F93E
:10296000F00307D55FEA097004D528684760284658
:1029700000F0A0F9300446D55FEA497040D5F00573
:1029800004D55FEAC87001D044F00104B00504D555
:102990005FEA887001D544F00204700504D55FEA4F
:1029A000487001D544F00404300529D518F0700FA3
:1029B00026D008F07000402815D006DC102809D079
:1029C00020280AD0302816D10AE050280ED06028DE
:1029D00011D10EE044F008040DE044F010040AE0C8
:1029E00044F0200407E044F0400404E044F0800494
:1029F00001E044F480742868816921F070018161EC
:102A0000296804204860002C05D0686A2043686269
:102A10002846FFF78FFEBDE8F09F70B5040003D095
:102A200094F8200010B104E0012070BD204600F0B1
:102A300081F82068016821F00201016000F048FC83
:102A40000546052604E000F043FC401B0A2811D887
:102A5000206840688007F6D42068016841F00101D1
:102A6000016000F035FC05460BE000F031FC401B36
:102A70000A2806D9606A40F40030606284F8206059
:102A8000D2E720684068C007EFD0207E0128206888
:102A900001683DD021F080010160607E012820683E
:102AA000016838D021F040010160A07E0128206833
:102AB000016833D021F020010160E07E0128206808
:102AC00001682ED041F010010160207F01282068AC
:102AD000016829D021F008010160607F0128206889
:102AE000016824D021F004010160D4E90201084307
:102AF000D4E90412114308436168491E0843216860
:102B0000C86100206062012084F82000002070BDB0
:102B100041F08001C0E741F04001C5E741F02001EC
:102B2000CAE721F01001CFE741F00801D4E741F0F6
:102B30000401D9E7F0B587B0044614216846FDF7D3
:102B40002FFE364B3648DFF8D0E01968D4F800C0C5
:102B5000334A03250226092710300024491CF44576
:102B600022D11960012907D1016841F0007101608B
:102B7000006800F000700590106840F008001060D8
:102B80001068CDE9005600F00800CDE904706946F0
:102B90002448CDE9024500F07BFA002202211420EE
:102BA00000F004FC142033E0DFF87CE0F44531D180
:102BB000D0F800C04CF0806CC0F800C0D0F800C065
:102BC00001290CF0806CCDF814C0196007D10168A0
:102BD00041F000710160006800F00070059010681D
:102BE00040F002001060106802AB00F00200059097
:102BF0004FF44050CDE9000683E8B00069460B4829
:102C000000F046FA00221146402000F0CFFB4020A1
:102C100000F0BEFB07B0F0BD00640040780000206B
:102C200030380240000C02400068004000040240BE
:102C300070470000034A01681268914201D101F017
:102C400025BE7047D01100207047704770470000C4
:102C500070B5044690F82000012804D0606A40F462
:102C60000020606218E0022084F8200020680168DB
:102C700021F00101016000F02BFB05460EE000BFD2
:102C800000F026FB401B0A2808D9606A40F4003097
:102C90006062052084F82000012070BD2068406833
:102CA000C007EDD1606270BD7047704770477047D4
:102CB0007047704770472DE9F0410446876D00F07A
:102CC00007FB064694F835000025022806D0802030
:102CD000606584F834500120BDE8F0812068016807
:102CE00021F0160101602068416921F080014161F5
:102CF000206C08B9A06C20B12068016821F008019F
:102D000001602068016821F0010101600CE000F021
:102D1000DFFA801B052807D920206065032084F88E
:102D2000350084F83450D7E720680068C007EED13A
:102D300094F85C103F208840B860012084F835008A
:102D400084F834500020C7E790F83510022903D0EA
:102D50008021416501207047052180F83510006809
:102D6000016821F001010160002070472DE9F8435E
:102D700004464FF00009CDF8009063484FF4165117
:102D8000A56D0068B0FBF1F72E6894F85C10082080
:102D900000FA01F131420FD021680A6852070BD5C1
:102DA0000A6822F004020A6094F85C108840A86067
:102DB000606D40F00100606594F85C104FF0010810
:102DC00008FA01F0304208D021684969090604D5A3
:102DD000A860606D40F00200606594F85C1004200B
:102DE0008840304208D021680968890704D5A86066
:102DF000606D40F00400606594F85C10102088401D
:102E0000304218D021680968090714D5A8602068E5
:102E10000168490304D50068000308D5A16C07E0E8
:102E20000168C90503D4016821F008010160216C23
:102E300009B12046884794F85C1020208840304231
:102E400031D021680968C9062DD5A86094F83500ED
:102E500005282068016806D0490347D500680003AB
:102E60001DD4616C1CE021F01601016020684169ED
:102E700021F080014161206C08B9A06C20B120686C
:102E8000016821F00801016094F85C103F2088403F
:102E9000A86084F8358084F83490216D1FE0E16BE0
:102EA00009B120468847606D00282BD0606DC007AF
:102EB00014D0052084F835002068016821F0010154
:102EC00001600098401C0090B84203D82068006858
:102ED000C007F6D184F8358084F83490E16C00297D
:102EE00010D001B02046BDE8F04308470168C9058D
:102EF000D5D4016821F01001016084F8358084F890
:102F00003490CCE7BDE8F883880000202DE9F0413B
:102F1000044600F0DDF906465CB1022084F8350075
:102F2000002584F834502068016821F00101016017
:102F30000DE00120BDE8F08100F0CAF9801B0528F2
:102F400005D920206065032084F83500F2E7206869
:102F50000068C007F0D12268116820480140D4E918
:102F600001031843D4E90336334318436369184314
:102F7000A3691843E3691843236A18430843616A45
:102F8000042903D1D4E90B131943084310602068C6
:102F90004069666A20F0070130460E430127042885
:102FA0000CD1A06A0643E06A40B12046FFF716F94B
:102FB00020B14020606584F83570BAE7206846612A
:102FC0002046FFF7F7F894F85C203F21914081609C
:102FD000656584F835700020ACE700003F8010F094
:102FE0002DE9F0410446866D90F834000025012853
:102FF0000DD0012084F8340094F835700020012FA2
:1030000007D084F8340002252846BDE8F08102206C
:10301000FBE7022784F8357060652046FFF708F962
:1030200094F85C103F208840B0602068016841F04F
:1030300016010160206C20B12068016841F0080190
:1030400001602068016841F001010160DCE70000D7
:1030500070B5044600F03CF90546601C02D00448F7
:103060000078044400F034F9401BA042FAD370BD4C
:103070007C00002070470000044910B50A68024235
:1030800002D00860FFF7F6FF10BD0000143C0140BD
:103090002DE9F84FDFF8F8A10022012403254FF0B5
:1030A0000F090AF1040BAAF1040E00BF0B6804FA21
:1030B00002F63340B34270D10F7907F00307012FB6
:1030C00001D0022F16D187684FEA420805FA08FCA2
:1030D00027EA0C07D1F80CC00CFA08FC4CEA070CE4
:1030E000C0F808C04768B7430E79C6F3001696408B
:1030F0003E4346600E79F643B6070AD0C7684FEAEA
:10310000420C05FA0CF6B7438E6806FA0CF63E43FD
:10311000C6600E7906F00306022E10D1D60800EB29
:103120008608D8F8206057074FEAD76C09FA0CF7E1
:10313000BE430F6907FA0CF73743C8F820700668DA
:103140004FEA420C05FA0CF7BE430F7907F003076C
:1031500007FA0CF7374307604E6816F4403F1CD05F
:103160004C4E376847F480473760366822F00307D3
:1031700006F480460096484E07EB060CDCF808681B
:1031800097073F0F09FA07F826EA0806DFF80C81CF
:10319000404503D14FF0000841E072E0DFF80081C4
:1031A000404502D14FF0010839E0DFF8F880404592
:1031B00002D14FF0020832E0DFF8EC80404502D146
:1031C0004FF003082BE0DFF8E480404502D14FF0D8
:1031D000040824E0DFF8D880404502D14FF005080C
:1031E0001DE0DFF8D080404502D14FF0060816E020
:1031F000DFF8C480404502D14FF007080FE0DFF848
:10320000BC80404502D14FF0080808E0DFF8B080EC
:10321000404502D14FF0090801E04FF00A0808FAD2
:1032200007F848EA0608CCF80888DAF8006057463C
:10323000D1F804C09E435FEACC2C00D51E433E600B
:10324000DBF800605F46D1F804C09E435FEA8C2C37
:1032500000D51E433E60DEF800607746D1F804C01A
:103260009E435FEA8C3C00D51E433E60084F083FFA
:103270003E68D1F804C09E435FEACC3C00D51E43B3
:103280003E60521C102AFFF411AFBDE8F88F000019
:10329000083C014044380240003001400000024038
:1032A0000004024000080240000C024000100240EE
:1032B0000014024000180240001C0240002002409E
:1032C000002402400AB1816170470904FBE7000055
:1032D00001488068704700007C0000200248816837
:1032E00002781144816070477C0000200B4810B5C3
:1032F000016841F400710160016841F4806101607E
:10330000016841F480710160032000F06FF8002033
:1033100000F006F800F024F8002010BD003C024048
:1033200070B50D4D04464FF47A712878B1FBF0F07A
:103330000A490968B1FBF0F000F044FB48B9102CD1
:1033400007D200222146501E00F030F800206C60A9
:1033500070BD012070BD00007C00002088000020AE
:103360000A4808B5016841F480410160006800F432
:10337000804000900548001F016841F080510160C5
:10338000006800F08050009008BD00004438024002
:10339000002809DB00F01F02012191404009800054
:1033A00000F1E020C0F8001170470000F0B40E4BAF
:1033B0001B680C46C3F30223C3F10705042D00D993
:1033C0000425191D072901D2002300E0DB1E012678
:1033D00006FA05F1491E214099409E40761E16408E
:1033E0003143F0BC02F0DBBC0CED00E0064900F01C
:1033F000070208684FF6FF03184040EA0220034A1C
:1034000010430860704700000CED00E00000FA0572
:103410002DE9F8431748016841F0805101600068C8
:10342000154F00F08050012600903E64FFF750FFDA
:1034300005464FF47A78114C05E000BFFFF748FFCE
:10344000401B40450DD86068C003F7D57E64FFF788
:103450003FFF0546464607E0FFF73AFF401BB042F4
:1034600002D90320BDE8F88360688003F4D500200A
:10347000F8E700004038024000000E4200700040B3
:103480002DE9F0470E46050065D0DFF81481D8F825
:103490000000F7B200F00F00B04207D288F80070C9
:1034A000D8F8000000F00F00B04254D128683D4C1D
:1034B000810712D5400703D5206840F4E050206012
:1034C0002878000703D5206840F460402060206819
:1034D000A96820F0F000084320602878C0072DD0AC
:1034E000304968680839012812D0022813D003280F
:1034F00011D00968890700292DDA216821F003011C
:1035000001432160FFF7E4FE814641F2883A0EE074
:1035100009688903EFE709688901ECE7FFF7D8FE3E
:10352000A0EB0901514502D90320BDE8F0872068CE
:10353000696800F00C00B0EB810FEFD1D8F80010F3
:10354000404601F00F01B14207D90770006800F052
:103550000F00B04201D00120E7E72878400705D5E9
:103560002068E96820F4E0500843206028780007CC
:1035700006D52068296920F4604040EAC100206037
:1035800000F038F82168084AC1F30311515CC840C3
:103590000649086006480068FFF7C2FE0020C4E73D
:1035A000003C0240083802402688000888000020BD
:1035B000800000200448054900680968044AC1F3F6
:1035C0008221515CC84070478800002008380240C2
:1035D000368800080448054900680968044AC1F3B0
:1035E0004231515CC84070478800002008380240D2
:1035F00036880008154810B5006810F00C02144811
:1036000013D01449042A0FD0082A0ED10F4C241FBE
:103610002268236802F03F025B0207D52068C0F3EE
:103620008810A0FB010106E0084610BD2168C1F327
:103630008811A1FB00010023FCF78EFE2168C1F375
:103640000141491C4900B0FBF1F010BD08380240AF
:103650000024F400001BB7002DE9F84F04006ED0E1
:103660002078DFF84C93C007A9F104054AD009F18E
:1036700004000168C1F38101012908D00068C0F38A
:10368000810002280AD1D9F80000400206D5286836
:10369000800337D560680028E1D033E06068B0F57A
:1036A000803F10D0B0F5A02F286810D020F48030D3
:1036B0002860286820F4802028606068A8B1FFF79F
:1036C00007FE06460DE0286840F48030F4E740F439
:1036D00080202860F7E700BFFFF7FAFD801B642811
:1036E00073D828688003F7D50CE0FFF7F1FD064694
:1036F00005E000BFFFF7ECFD801B6428F0D82868C8
:103700008003F7D42078DFF8AC8280074FF0000AFE
:103710003ED5A748001D016811F00C0F08D00068C5
:10372000C0F3810002280BD1D9F80000400207D471
:103730002868800716D5E068012800D112E033E13F
:10374000E068B8B10120C8F80000FFF7C1FD0646E7
:1037500005E000BFFFF7BCFD801B0228C0D8286829
:103760008007F7D52868216920F0F80040EAC100F9
:1037700028600DE0C8F800A0FFF7AAFD064604E0A7
:10378000FFF7A6FD801B02281FD828688007F7D402
:103790002078000722D5864F87486169703771B15C
:1037A00001210160FFF794FD064604E0FFF790FD5C
:1037B000801B022809D838688007F7D50EE0C0F8CA
:1037C00000A0FFF785FD064605E082E0FFF780FDDB
:1037D000801B02287DD838688007F7D420784007FE
:1037E00068D5DFF8CCB100270BF13C0BDBF800000B
:1037F000C0000BD4DBF8001041F08051CBF8001072
:10380000DBF80000012700F0805000906B4E30681C
:10381000C00510D4306840F480703060FFF758FD68
:10382000009005E0FFF754FD0099401A022850D897
:103830003068C005F6D55E4EA0686C3601280FD002
:103840000528306810D020F001003060306820F08A
:1038500004003060A068B8B1FFF73AFD00900FE0B7
:10386000306840F00100F4E740F004003060F7E712
:10387000FFF72EFD0099411A41F28830814266D847
:1038800030688007F4D50EE0FFF722FD009007E0D6
:10389000FFF71EFD0099411A41F28830814256D847
:1038A00030688007F4D42FB1DBF8001021F080518C
:1038B000CBF80010A069C8B33D49091D0968C1F3E0
:1038C000810102294AD00228504607D0C8F860007A
:1038D00000E03CE0FFF7FCFC04463BE04746C8F84C
:1038E0006000FFF7F5FC064605E000BFFFF7F0FCBF
:1038F000801B02282BD828688001F7D4D4E907015F
:103900000843A16A2E4A490802EB0141626A41EA72
:103910008211084394F82C1040EA0161C9F80010A4
:1039200001203866FFF7D4FC044606E03EE000BF05
:10393000FFF7CEFC001B022809D828688001F7D5C4
:1039400034E000BFFFF7C4FC001B022802D90320AB
:10395000BDE8F88F28688001F4D427E00128F7D06B
:10396000D9F80000E26900F4800191421CD1226A7A
:1039700000F03F01914217D147F6C071626A0140E1
:10398000B1EB821F10D1A26A4FF0FF3300F4403137
:1039900003EB5202B1EB024F06D194F82C1000F069
:1039A0007060B0EB016F01D00120D1E70020CFE7BC
:1039B0000438024000004742800E47420070004039
:1039C0000000FFFF10B5401EB0F1807F01D3012041
:1039D00010BD4FF0E02460610F21601702F0DFF9A5
:1039E0000020A06107202061002010BD70477047B3
:1039F00070B590F83C20012A32D0012480F83C4078
:103A0000022280F83D2003685A689D6822F0700603
:103A10000A6832435A60134B02689A4214D0B2F1DA
:103A2000804F11D0104B9A420ED0104B9A420BD0BF
:103A30000F4B9A4208D00F4B9A4205D00E4B9A4238
:103A400002D00E4B9A4204D1496825F080031943F5
:103A5000916080F83D40002180F83C10084670BD20
:103A6000022070BD0000014000040040000800403A
:103A7000000C0040000401400040014000180040DC
:103A800010B5040003D094F83D0010B107E0012008
:103A900010BD002084F83C00204600F01FF80220F2
:103AA00084F83D00211D206801F060FD012084F8AC
:103AB000460084F83E0084F83F0084F8400084F813
:103AC000410084F8420084F8430084F8440084F8FC
:103AD000450084F83D00002010BD000008B50168D5
:103AE0002E482F4A814207D1106840F00100106033
:103AF000106800F0010044E029482A4B001F994259
:103B00000ED1016841F0020101600068002200F05E
:103B10000200009006211D20FFF748FC1D2022E036
:103B2000214B99420ED1016841F004010160006807
:103B3000002200F00400009004211E20FFF736FC54
:103B40001E2010E0194B994211D1016841F0080183
:103B500001600068002200F008000090052132207A
:103B6000FFF724FC3220BDE80840FFF711BC104BE2
:103B7000994208D1106840F480301060106800F459
:103B80008030009008BD0B4A9142FBD1016841F0A2
:103B900040010160006800F04000F2E700000140D1
:103BA000443802400004004000080040000C00407F
:103BB000004001400018004090F83D10012901D05C
:103BC00001207047022180F83D100168CA6842F068
:103BD0000102CA6000681149884214D0B0F1804FD8
:103BE00011D00F4988420ED00E4988420BD00E49A1
:103BF000884208D00D49884205D00D49884202D03C
:103C00000C49884204D1816801F00701062903D0DC
:103C1000016841F00101016000207047000001408F
:103C20000004004000080040000C00400004014077
:103C3000004001400018004070B5044690F83C0078
:103C40000025012817D0012684F83C60022084F862
:103C50003D002068826822F0770222F47F42826071
:103C60000868502838D00DDC20284FD005DC90B3F0
:103C7000102811D14AE0022070BD302846D04028DB
:103C80000AD13BE060282FD070280DD0B0F5805FBE
:103C900003D0B0F5005F12D0012584F83D6000200C
:103CA00084F83C00284670BDCB68D1E9012120682A
:103CB00001F0C0FC2068816841F0770109E0CB6821
:103CC000D1E90121206801F0B5FC2068816841F448
:103CD00080418160E1E719E0CA684968206801F025
:103CE0007DFD5021206806E0CA684968206801F01F
:103CF00086FD6021206801F0A7FCCEE7CA6849680C
:103D0000206801F06BFD40212068F4E7226801463D
:103D10001046F0E7704770B50446006801694FF03F
:103D20000005C943890715D4C168C943890711D45F
:103D3000E91E016101202077206880698007204604
:103D400002D0FFF7E7FF04E000F0C2F8204600F0E1
:103D500054F9257720680169C943490717D4C16818
:103D6000C943490713D46FF0040101610220207791
:103D70002068806910F4407F204602D0FFF7CAFF18
:103D800004E000F0A5F8204600F037F92577206818
:103D90000169C943090716D4C168C943090712D488
:103DA0006FF008010161042020772068C069800756
:103DB000204602D0FFF7AEFF04E000F089F820466D
:103DC00000F01BF9257720680169C943C90617D49B
:103DD000C168C943C90613D46FF0100101610820FE
:103DE00020772068C06910F4407F204602D0FFF79A
:103DF00091FF04E000F06CF8204600F0FEF8257713
:103E000020680169C943C90708D1C168C943C90706
:103E100004D1891E0161204600F0F0F82068016994
:103E2000C943090609D4C168C943090605D46FF01E
:103E3000800101612046FFF7D9FD20680169C9436F
:103E4000490609D4C168C943490605D46FF0400149
:103E50000161204600F080F920680169C9438906A4
:103E60000BD4C168C943890607D46FF020010161F2
:103E70002046BDE87040FFF7BABD70BD10B586B0F2
:103E8000044614216846FCF78BFC0E4920688842E2
:103E900015D10D480021026842F0800202600068DE
:103EA00000F080000590402000900220CDE9010143
:103EB0000920CDE9031069460448FFF7E9F806B088
:103EC00010BD00000018004030380240001C0240C5
:103ED000704770B5044690F83C0000260D46012856
:103EE0000FD0012084F83C006AB1042A1DD0082AB2
:103EF0002FD00C2A3FD00126002084F83C00304609
:103F000070BD022070BD206801F0A6FB20688169A9
:103F100041F0080181612068816921F0040181611B
:103F2000206881692A69114311E0206801F0C4FB0F
:103F30002068816941F4006181612068816921F410
:103F400080618161206881692A6941EA0221816179
:103F5000D2E7206801F0E6FB2068C16941F0080162
:103F6000C1612068C16921F00401C1612068C16993
:103F70002A69114311E0206801F008FC2068C1693A
:103F800041F40061C1612068C16921F48061C161AF
:103F90002068C1692A6941EA0221C161ACE710B514
:103FA000040003D094F83D0010B107E0012010BDDB
:103FB000002084F83C00204600F01EF8022084F81F
:103FC0003D00211D206801F0D1FA012084F846004F
:103FD00084F83E0084F83F0084F8400084F84100F3
:103FE00084F8420084F8430084F8440084F84500D3
:103FF00084F83D00002010BD7047704770B5424CFA
:1040000006462DED048B208803F0CDFE9FED3F8BFF
:1040100053EC182B03F016FF9FED3E9B53EC192B2E
:1040200003F052FD03F062FC3C490860608803F035
:10403000BAFE53EC182B03F005FF53EC192B03F0D9
:1040400043FD03F053FC3649364C0860206F04F002
:10405000EFF99FED358B53EC182B03F0F3FE03F0D3
:1040600045FC33490860206B04F0E2F953EC182B4F
:1040700003F0E8FE03F03AFC2E49002508602E48C4
:10408000864216D12D4C6068401C00EBD07121F0A7
:1040900001016060401A2349A060A1F1800001D1B4
:1040A0004030403101F0BCF925496068884200DDAC
:1040B00065602448864223D1234924484FF4F9738C
:1040C0000A68012A08D10D60C16AA1F1C9029A42A9
:1040D00001D84181C562C5621D4A1E491468012C80
:1040E00008D11560CA6AA2F1C9049C4201D84A816C
:1040F000CD62CD62C26A521CC262C86A401CC862EC
:10410000BDEC048B70BD000058010020713D0AD742
:10411000A34478400000000000FEAF405C01002096
:1041200060010020B00A002066666666661662407E
:10413000880100208C010020840B0020200000203A
:10414000A0860100CC0B00208C000020E81200208B
:1041500090000020B0120020704738B5044690F857
:104160003E00202822D181B17AB194F83C00012888
:104170001CD0012084F83C002063204601F0F4FCB0
:10418000002803D1216B012901D0012038BD21680D
:104190000A684968009121680C3151E8002F42F00B
:1041A000100241E80023002BF5D138BD022038BDB4
:1041B00070477047F8B5016804460868CA684B69DB
:1041C00010F00F0F4FF0000559D003F0010602F474
:1041D0009077374365D0C10705D0D10503D5216C51
:1041E00041F001012164410705D5D90703D0216CB5
:1041F00041F002012164810705D5D90703D0216C64
:1042000041F004012164010707D502F02001314388
:1042100003D0216C41F008012164216C00293AD0BF
:10422000800604D5900602D5204601F0B7FB206831
:104230004069216CC0F38010090700D460B32046A8
:1042400001F077FB20684069400621D520681430D2
:1042500050E8001F21F0400140E80012002AF5D18B
:10426000A06BA8B16C490165A06BFEF76DFD00283D
:1042700011D0A06B016D01B0BDE8F0400847830686
:104280000FD593060DD52046BDE8F84001F086BB5A
:104290002046FFF78EFFF8BD2046FFF78AFF256412
:1042A000F8BD266B2023012E79D1C60677D5D60618
:1042B00075D50868486800904869400640D5A16BEC
:1042C000086840680004000CEAD0A28D8242E7D959
:1042D000E085C869B0F5807F2DD020680C3050E8AB
:1042E000001F21F4807140E80012002AF5D12068F7
:1042F000143050E8001F21F0010140E80012002AAC
:10430000F5D12068143050E8001F21F0400140E84A
:104310000012002AF5D184F83E30256320680C3065
:1043200050E8001F21F0100140E80012002AF5D1EA
:10433000A06BFEF7C0FCA08DE18D401A81B229E090
:10434000A08DE18D401A81B2E08D0028A8D000290F
:10435000A6D020680C3050E8002F22F4907240E87C
:104360000026002EF5D12068143050E8002F22F0EE
:10437000010240E80026002EF5D184F83E30256386
:1043800020680C3050E8002F22F0100240E8002393
:10439000002BF5D12046FFF70BFFF8BDFFE7050620
:1043A0002BD5150629D594F83D002128F5D1A06814
:1043B000B0F5805F01D12069B0B1206A411C216253
:1043C000216800784860E08C401E0004000CE08406
:1043D000E3D12068C16821F08001C1602068C16814
:1043E00041F04001C160D8E7206A0088C0F30800AE
:1043F0004860206A801C2062E5E74006CDD5500663
:10440000CBD5CA68204622F04002CA6084F83D300D
:1044100000F039FAC1E700003D58000870B504000B
:1044200004D094F83D00002510B106E0012070BDD5
:1044300084F83C50204600F023F8242084F83D0006
:104440002068C16821F40051C160204601F006FBDC
:104450002068016921F4904101612068416921F0DF
:104460002A0141612068C16841F40051C16025649E
:10447000202084F83D0084F83E00002070BD00003C
:104480002DE9F04F87B0044614216846FCF788F9FF
:10449000C348DFF808831038D4F800C0C04B0222AC
:1044A0000321DFF800A3002507154FF008094FF49A
:1044B000807B4FF02066C44557D1D3F800C04CF044
:1044C000804CC3F800C01B6803F080430593036869
:1044D00043F0100303600068CDE9025100F01000C2
:1044E0000590C801CDE90002CDF81090694650460C
:1044F000FEF7CEFDDFF8B482AB494046C8F80010A5
:10450000C0E90165C0E90357C8F81450C0E9065B6B
:10451000B246C8F82050B9465E46C8F82450FEF7A7
:10452000F5FC08B1FDF7A5FEA04F9F48C4F8388000
:1045300060373038C8F838403860C7E901A5C7E9A6
:1045400003597D61C7E906563D6238467D62FEF734
:10455000DDFC08B1FDF78DFE6763002201215220CA
:10456000BC63FEF723FF52205BE0DFF84482C445C2
:104570005CD1D3F800C04CF0004CC3F800C01B68FD
:1045800003F000430593036843F0100303600068E1
:104590000DF1080800F010000590CDE9001201208F
:1045A00088E8030269465046FEF772FDDFF8FC8199
:1045B0007D4908F1C00848314046C8F80010C0E9FC
:1045C0000165C0E90357C8F81450C0E9065BC8F894
:1045D0002050B946C8F82450FEF798FC08B1FDF702
:1045E00048FE7148734FC4F838804838C8F83840DE
:1045F000E7E802064020A7E821026E4847F8145970
:10460000BD61FD613D627D62FEF780FC08B1FDF792
:1046100030FE6763002201215320BC63FEF7C6FE13
:104620005320FEF7B5FE07B0BDE8F08FDFF88881B4
:10463000DFF888B14FF0070AC44521D11C6844F463
:1046400000341C601B6803F400330593036843F0D7
:10465000080303600068CDE9025100F008000590EE
:104660006020CDE90002CDF810A069465846FEF75B
:104670000FFD002202212620FEF798FE2620D0E71B
:10468000DFF83C81C44522D11C6844F480241C60BE
:104690001B6803F480230593036843F00803036059
:1046A0000068CDE9025100F0080005904FF4407019
:1046B000CDE90002CDF810A069465846FEF7E8FCA7
:1046C000002203212720FEF771FE2720A9E73D4B9A
:1046D0009C45A8D1324BA8461B1DD3F800C04CF016
:1046E000200CC3F800C01B6803F020030593036887
:1046F00043F0400303600068CDE9025100F0400040
:1047000005904FF48440CDE90002CDF81090694641
:104710002D48FEF7BDFCDFF89C902C4909F160099B
:104720004846C9F80010C0E90165C0E90357C9F857
:104730001450C9F81850C9F81C50C9F82050C9F8CD
:104740002450FEF7E3FB08B1FDF793FD194D1F4818
:10475000C4F83890C0357830C9F83840C5E900064B
:104760004020A860C5E90387C5F81480C5F8188003
:10477000C5F81C80C5F820802846C5F82480FEF7BF
:10478000C5FB08B1FDF775FD6563002207214720D1
:10479000AC63FEF70BFE472043E7000000780040C3
:1047A000403802400010024058600240C00E002015
:1047B000007C0040E00F002000440040000C02405C
:1047C00000480040001401400018024028640240E4
:1047D000704770472DE9F843044690F83D001F46A6
:1047E00016460D4620284CD1C5B1BEB194F83C0008
:1047F000012846D0012084F83C004FF00008C4F89E
:104800004080212084F83D00FEF762FDA6848146A9
:10481000E684A068B0F5805F03D004E00120BDE825
:10482000F883206928B12E465FF0000584F83C80AB
:104830000EE00026FAE78021204601F0DFF9A0B95A
:10484000AEB116F8010B21684860E08C401EE08490
:10485000E08C4B464FF0000200970028EBD14FF060
:104860004001204601F0CAF930B10320D7E735F8FE
:10487000020BC0F30800E6E7202084F83D0000208A
:10488000CDE70220CBE77047FEE7000010B50446F5
:10489000184B194A0021FDF74EFF08B1FDF7E9FC5E
:1048A00015480068132815D006DC092810D01128F7
:1048B00014D0122804D117E0142811D0152815D0CF
:1048C000FDF7D7FC2068416941F00201416110BD4C
:1048D000012000E0022002F013FBF3E7012000E0DA
:1048E000022002F0EFFAEDE7012000E0022002F0E2
:1048F000CBFAE7E704010020801300202DE9FE4FEA
:10490000DFF8DCB10025E94601AE02ACABF1120ADA
:10491000DFF8CC81002008F118085A4608F1180386
:104920004FEA090700EB450112F801C007F800C083
:1049300018F801C006F800C0595C2154401C022838
:10494000F0DBD0469AED000A684602F039F9654876
:1049500000EB850701A887ED000A98ED010A02F037
:104960002FF987ED030A98ED020A02A802F028F950
:104970006D1C87ED060A032DCADBDFF864B1002742
:104980000BF1060B4D46B046DFF854C100200CF188
:104990001E0C5A460CF118094FEA080300EB4701B8
:1049A000565C2E541CF801601E5419F80110215455
:1049B000401C0228F2DBD1469AED000A684602F05C
:1049C000FFF84848243000EB870601A886ED000A6E
:1049D00099ED010A02F0F4F886ED030A99ED020A56
:1049E00002A802F0EDF87F1C86ED060A032FCBDB50
:1049F000DFF8ECB046460BF10C0B00270BF1300A48
:104A0000A046DFF8DCC000205A460CF1240C4346D7
:104A100000EB47019846545C2C541CF80140345478
:104A20001AF801401C54401C0228F1DB99ED000AE1
:104A3000684602F0C5F82B48483000EB870401A80F
:104A400084ED000A99ED010A02F0BAF884ED030A38
:104A500099ED020A02A802F0B3F87F1C84ED060A61
:104A6000032FCEDBAB464546DFF874800024B24608
:104A700008F12A081A4B002012335F46524603F110
:104A8000300600BF00EB440113F801C007F800C076
:104A900018F801C002F800C0715C2954401C0228BB
:104AA000F0DB4E4699ED000A684602F089F80D48A1
:104AB0006C3000EB840701A887ED000A96ED010A2F
:104AC00002F07EF887ED030A96ED020A02A802F0D2
:104AD00077F8641C87ED060A032CCBDBBDE8FE8F5C
:104AE0000A010020A81300207FB500211A48009178
:104AF00001910291174A0391026001244FF4803220
:104B00000461C0E90121047680F82010134AC0E94D
:104B10000A210225C561C16080F830404461FDF77B
:104B200060FC08B1FDF7A5FB009469460A48CDE991
:104B30000145FDF7A1FB08B1FDF79BFB0320CDE983
:104B4000000569460448FDF797FB002801D0FDF7F2
:104B500090FB7FBD00200140001100200100000FEC
:104B6000104810B50E4901600221416000214FF04C
:104B70004072C0E902124FF4602202614FF4C00299
:104B80004261017641768176C17601774177FDF702
:104B900044FF002803D0BDE81040FDF76ABB10BDFC
:104BA00000640040A81100200F4810B50D490160B5
:104BB0000321416000214FF430228160C0E90312DB
:104BC0004FF480124261017641768176C176017799
:104BD0004177FDF722FF002803D0BDE81040FDF724
:104BE00048BB10BD00680040D0110020214808B526
:104BF000016841F480010160016801F480010091C5
:104C0000016841F4001101600068002200F4001006
:104C1000009011460B20FEF7C9FB0B20FEF7B8FBF6
:104C2000002211460C20FEF7C1FB0C20FEF7B0FB62
:104C3000002211460E20FEF7B9FB0E20FEF7A8FB5E
:104C4000002211461120FEF7B1FB1120FEF7A0FB58
:104C5000002211463920FEF7A9FB3920FEF798FB08
:104C6000002211464520FEF7A1FBBDE80840452083
:104C7000FEF78EBB303802402DE9F04F87B014218B
:104C80006846FBF78DFD75480024016841F010016E
:104C90000160016801F010010591016841F04001D7
:104CA0000160016801F040010591016841F00101D6
:104CB0000160016801F001010591016841F00801FE
:104CC0000160016801F008010591016841F00401EB
:104CD0000160016801F004010591016841F0800163
:104CE0000160016801F080010591016841F0200137
:104CF0000160016801F020010591016841F00201A5
:104D000001600068DFF858B100F002000590002251
:104D100040F604015846FEF7D5FA524F00223C21D6
:104D20003846FEF7CFFADFF8409100224FF4FF71CA
:104D30004846FEF7C7FA00224FF488414B48FEF779
:104D4000C1FADFF82CA1002202215046FEF7BAFA80
:104D50004FF004080125CDF80080CDE901546946E3
:104D600058460394FEF794F93C20022603948DE8FC
:104D7000610069463846FEF78BF94FF4FB70CDE9C8
:104D80000005CDE9025469464846FEF781F9082737
:104D90000097CDE90154694648460394FEF778F937
:104DA000A802CDE90005CDE9024669462F48FEF785
:104DB0006FF900974FF40417CDE9017569462D4846
:104DC000FEF766F9CDE90084DFF8AC80694640461D
:104DD0000294FEF75DF93020CDE90007694602959F
:104DE0005046FEF755F9E80203948DE861006946E4
:104DF0005846FEF74DF90096CDE9017569464046E3
:104E0000FEF746F9A80303948DE861006946174848
:104E1000FEF73EF9002211460720FEF7C7FA0720E9
:104E2000FEF7B6FA002211460920FEF7BFFA092064
:104E3000FEF7AEFA002211460A20FEF7B7FA0A2062
:104E4000FEF7A6FA002211461720FEF7AFFA172048
:104E5000FEF79EFA07B0BDE8F08F00003038024040
:104E600000100240001C02400018024000140240E2
:104E700000000240000802400004024010B58CB05F
:104E800000240794089409941C2168460A94FBF7AF
:104E900087FC1A48184901606321C0E9011440F2F7
:104EA000CF71C0E903148461FEF7EAFD08B1FDF794
:104EB000E0F94FF48050079007A91048FEF7BCFEB8
:104EC00008B1FDF7D6F90D48FFF769F808B1FDF70D
:104ED000D0F96020CDE90004029400226946074819
:104EE0000494FEF7F6FF08B1FDF7C3F90348FEF797
:104EF000C5FF0CB010BD000000180040A40C00203D
:104F000010B586B0002418480094019402940394CC
:104F1000049414490594016040F28F61C0E90114C2
:104F200040F2F311C0E9031444618461FEF7A8FD67
:104F300008B1FDF79EF94FF48050009069460A4889
:104F4000FEF77AFE08B1FDF794F9049404A9064827
:104F50000594FEF74DFD002801D0FDF78AF906B053
:104F600010BD0000000001403C0B002010B586B0D1
:104F70000024174800940194029403940494134964
:104F8000059401605321C0E9011442F20F71C0E998
:104F900003148461FEF774FD08B1FDF76AF94FF45C
:104FA0008050009069460A48FEF746FE08B1FDF7BA
:104FB00060F9049404A906480594FEF719FD002839
:104FC00001D0FDF756F906B010BD00000004004006
:104FD000840B002010B586B000241748009401947B
:104FE000029403940494134905940160D721C0E905
:104FF000011440F2E731C0E9031480218161FEF71A
:105000003FFD08B1FDF735F94FF480500090694637
:105010000948FEF711FE08B1FDF72BF9049404A925
:1050200005480594FEF7E4FC002801D0FDF721F9BE
:1050300006B010BD00080040CC0B002010B586B0B3
:105040000024164800940194029403940494124995
:10505000059401605321C0E901143121C0E9031412
:105060008461FEF70DFD08B1FDF703F94FF48050A0
:10507000009069460948FEF7DFFD08B1FDF7F9F831
:10508000049404A905480594FEF7B2FC002801D059
:10509000FDF7EFF806B010BD000C0040140C002026
:1050A0001FB5002110480091019102910D4A039112
:1050B00002605322C0E901213122C0E9032181614C
:1050C000FEF7DEFC08B1FDF7D4F84FF480500090F5
:1050D00069460548FEF7B0FD002801D0FDF7C9F884
:1050E0001FBD0000004001405C0C00200C4810B5C2
:1050F0000A4901604FF4E1314160002181600C22D6
:10510000C160C0E904128161C161FFF787F900281D
:1051100003D0BDE81040FDF7ACB810BD00780040EA
:105120006C0D00200C4810B50A4901604FF4E121D4
:105130004160002181600C22C160C0E904128161DC
:10514000C161FFF76BF9002803D0BDE81040FDF7FF
:1051500090B810BD007C0040B00D00200C4810B588
:105160000A4901604FF4E1314160002181600C2265
:10517000C160C0E904128161C161FFF74FF90028E5
:1051800003D0BDE81040FDF774B810BD00440040E6
:10519000F40D00200C4810B50A4901604FF4E131CC
:1051A0004160002181600C22C160C0E9041281616C
:1051B000C161FFF733F9002803D0BDE81040FDF7C7
:1051C00058B810BD00480040380E00200C4810B5FB
:1051D0000A4901600B494160002181600C22C160D5
:1051E000C0E904128161C161FFF718F9002803D0FA
:1051F000BDE81040FDF73DB810BD000000140140AF
:105200007C0E002000093D00FEE7FEE7704790ECB1
:10521000020A30EE600A80ED020AD0EDAE0AB4EE6A
:10522000E00AF1EE10FA06DAF1EE600AB4EEE00AF6
:10523000F1EE10FA5CD2D0ED040A60EE800AC0ED07
:10524000070A90ED0A1AF1EE411AF4EEE10AF1EEC6
:1052500010FA02D8C0ED071A06E0F4EEC10AF1EE2A
:1052600010FA01DB80ED071AD0ED080A90ED051A5F
:1052700041EE000AC0ED080A90ED0B1AF1EE411A5A
:10528000F4EEE10AF1EE10FA02D8C0ED081A06E0D9
:10529000F4EEC10AF1EE10FA01DB80ED081AD0ED50
:1052A000030A90ED061A70EE600A60EE810AC0ED06
:1052B000090A90ED0C1AF1EE411AF4EEE10AF1EE52
:1052C00010FA02D8C0ED091A06E0F4EEC10AF1EEB8
:1052D00010FA01DB80ED091AD0ED070A90ED081AEB
:1052E00070EE810A90ED091A70EE810AC0ED0D0A88
:1052F000D0ED0E0AD0ED0D1AB1EE601AF4EEC11A1F
:10530000F1EE10FA02D880ED0D1A06E0F4EEE01A84
:10531000F1EE10FA01DBC0ED0D0A80ED030A7047D3
:10532000704700003C489FED3D3A0146D0ED022A0F
:10533000D1ED0A0A91ED031AB4EEE20AF1EE10FA89
:105340000BDDB4EEC10AF1EE10FA06D2F0EE601AEF
:10535000B0EE402AF0EE430A1EE02F49B4EEC10A37
:10536000D1ED042AF1EE10FA04DBB4EEE20AF1EE1C
:1053700010FA3ED92849B4EEE20A91ED051AF1EE91
:1053800010FA0DDDB4EEC10AF1EE10FA08D200BF3A
:10539000B0EE402AF0EE431AB0EE620A01F084BC8F
:1053A0001D49B4EEC10AD1ED062AF1EE10FA04DD72
:1053B000B4EEE20AF1EE10FA2AD31749B4EEE20A8B
:1053C000D1ED0B0A91ED071AF1EE10FA04DBB4EE01
:1053D000C10AF1EE10FAB9D30F49B4EEC10AD1ED0A
:1053E000082AF1EE10FA07DBB4EEE20AF1EE10FA49
:1053F00002D8B0EE600A7047B4EEE20AF1EE10FA9D
:1054000006DD90ED091AB4EEC10AF1EE10FABFD331
:10541000B0EE430A704700008C000020000000003E
:105420002DE9F0410C46054601F0DEFD0122144F46
:10543000960231463846FDF745FF022311222946E0
:105440001048FFF7C7F9002231463846FDF73AFF0A
:10545000102221460B48FEF780FE2078FD2802D15D
:105460006078EE2804D0002020620120BDE8F081A1
:1054700001202062204601F077FC0020F6E70000C2
:10548000001402407C0E0020704710B5FDF726FF87
:10549000BDE8104002F0DDB930B593B03021684668
:1054A000FBF77EF914210CA8FBF77AF920480025B8
:1054B000016841F080510160006800F08050119057
:1054C0001C48016841F4404101600068022400F476
:1054D0004040119001200090000401908001CDE92E
:1054E000064006200890B420CDE9090404200B9062
:1054F0006846FEF7B1F808B172B6FEE7FDF788FF1F
:1055000008B172B6FEE70CA90F2081E831004FF414
:10551000A0500F904FF48050109005210CA8FDF77B
:10552000AFFF002801D072B6FEE713B030BD000017
:1055300040380240007000400248016841F47001A8
:105540000160704788ED00E00148FEF7E4BB000011
:10555000840B00200148FEF7DEBB0000CC0B0020CE
:105560000148FEF7D8BB0000140C0020F0B502681B
:10557000254C264D264E274F274B4FF0804CA042FE
:1055800009D0604507D0A84205D0B04203D0B84248
:1055900001D0984204D122F0700E4A6842EA0E020D
:1055A000A0421BD0604519D0A84217D0B04215D0F8
:1055B000B84213D0984211D0184DA8420ED0184DC1
:1055C000A8420BD0174DA84208D0174DA84205D0CD
:1055D000164DA84202D0164DA84203D122F44075C0
:1055E000CA682A434D6922F080022A4302608A6811
:1055F000C2620A688262A04201D0984201D1096960
:10560000016301214161F0BD000001400004004040
:1056100000080040000C0040000401400040014030
:10562000004401400048014000180040001C0040B8
:105630000020004010B5846842EA032224F47F442D
:105640000A432243826010BD826822F070020A433E
:1056500042F0070181607047F0B5026A22F0010252
:105660000262036A42688469124E24F073050C6872
:105670002C4323F002058B682B430D4DA84201D02B
:10568000B04205D123F00807CB683B4323F0040365
:10569000A84201D0B04205D14D6922F440721543B1
:1056A0008A692A4342608461496841630362F0BDAC
:1056B0000000014000040140F0B5026A22F010022F
:1056C0000262026A436884690D6824F4E64444EA8D
:1056D00005248D6822F0200242EA05120F4D104E7B
:1056E000A84201D0B04206D1CF6822F0800242EA3F
:1056F000071222F04002A84201D0B04207D14D6902
:1057000023F4406343EA85038D6943EA85034360DC
:105710008461496881630262F0BD000000000140BD
:1057200000040140F0B5026A22F480720262026A4B
:105730004368C46922F4007224F073050C68124EA9
:105740002C438D6842EA05220E4DA84201D0B0429A
:1057500006D1CF6822F4006242EA072222F4806276
:10576000A84201D0B04207D14D6923F4405343EA27
:1057700005138D6943EA05134360C4614968C16339
:105780000262F0BD000001400004014030B5026A31
:1057900022F480520262046A4268C3690D6823F4ED
:1057A000E64343EA05238D6824F4005444EA0534B3
:1057B000084DA84202D0084DA84204D14D6922F4F8
:1057C000804242EA85124260C36149680164046212
:1057D00030BD0000000001400004014010B5036A24
:1057E000046A24F001040462846924F0F00444EAA9
:1057F000021423F00A020A438461026210BD10B54C
:10580000036A23F0100303628369046A23F470437C
:1058100043EA023224F0A00343EA011182610162EB
:1058200010BD00000148FEF7C5BC00006C0D002053
:105830000148FEF7BFBC0000B00D002010B5806B22
:105840000021C185C184FEF7B4FC10BD70B5846B26
:105850002068406994F83D10C0F3C010002521294C
:1058600004D118B1E584204600F08AF82068406928
:1058700094F83E10C0F38010222904D118B1E585B8
:10588000204600F056F8206C40F0100020642046BE
:10589000FEF78FFC70BD10B50146806B0968096882
:1058A000C9052FD40021C18501680C3151E8002FB2
:1058B00022F4807241E80023002BF5D101681431F5
:1058C00051E8002F22F0010241E80023002BF5D11E
:1058D0000168143151E8002F22F0400241E8002312
:1058E000002BF5D1202180F83E10016B012909D150
:1058F00001680C3151E8002F22F0100241E800232A
:10590000002BF5D1016B012902D0FEF761FF10BD1C
:10591000818DFEF74DFC10BD10B5806B016B012928
:1059200002D0FEF756FF10BD818D4908FEF740FCFE
:1059300010BD01680C3151E8002F22F4907241E84B
:105940000023002BF5D10168143151E8002F22F01B
:10595000010241E80023002BF5D1016B012909D197
:1059600001680C3151E8002F22F0100241E80023B9
:10597000002BF5D1202180F83E10002101637047F3
:1059800001680C3151E8002F22F0C00241E80023E9
:10599000002BF5D1202180F83D10704708B590F814
:1059A0003E10222901D0022008BD82684FF48053A6
:1059B0009A4201D1016921B1816A9A421BD04AB150
:1059C0000AE00268816A5268C2F308020A80816AAA
:1059D000891C08E0026972B10268526802F07F0215
:1059E0000A70816A491C8162C18D491E0904090C33
:1059F000C18503D019E002685268F1E70168CA68FE
:105A000022F02002CA600168CA6822F48072CA606B
:105A100001684A6922F001024A61202180F83E10A3
:105A2000016B012903D0FEF7D3FE002008BD002141
:105A3000016301680C3151E8002F22F0100241E8A7
:105A40000023002BF5D101680A68D20602D50A6846
:105A500049680091818DFEF7ABFBE6E770B504461F
:105A600000680169E26821F4405111430161216934
:105A7000A068E26908436169114308432168CA6864
:105A800049F20C639A430243CA6020684169A269E3
:105A900021F440711143416131492068884202D0AC
:105AA0003049884202D1FDF795FD01E0FDF782FD06
:105AB000E2690023192164253226B2F5004F62689D
:105AC00028D0A0FB0101930F9200FAF745FC014694
:105AD000B0FBF5F06FF01802504301EB800006EBCD
